{
  "contractName": "User",
  "abi": [
    {
      "inputs": [],
      "name": "deposit",
      "outputs": [],
      "stateMutability": "payable",
      "type": "function",
      "payable": true
    },
    {
      "inputs": [
        {
          "internalType": "address",
          "name": "_wallet",
          "type": "address"
        }
      ],
      "name": "getUserInfo",
      "outputs": [
        {
          "components": [
            {
              "internalType": "string",
              "name": "name",
              "type": "string"
            },
            {
              "internalType": "bool",
              "name": "driver",
              "type": "bool"
            },
            {
              "internalType": "int256",
              "name": "rating",
              "type": "int256"
            },
            {
              "internalType": "int256",
              "name": "noOfRatingTransactions",
              "type": "int256"
            },
            {
              "internalType": "string",
              "name": "carType",
              "type": "string"
            },
            {
              "internalType": "string",
              "name": "licensePlate",
              "type": "string"
            }
          ],
          "internalType": "struct User.UserStruct",
          "name": "",
          "type": "tuple"
        }
      ],
      "stateMutability": "view",
      "type": "function",
      "constant": true
    },
    {
      "inputs": [
        {
          "internalType": "string",
          "name": "_name",
          "type": "string"
        },
        {
          "internalType": "bool",
          "name": "_driver",
          "type": "bool"
        }
      ],
      "name": "setUserData",
      "outputs": [],
      "stateMutability": "nonpayable",
      "type": "function"
    },
    {
      "inputs": [
        {
          "internalType": "string",
          "name": "_name",
          "type": "string"
        },
        {
          "internalType": "bool",
          "name": "_driver",
          "type": "bool"
        },
        {
          "internalType": "string",
          "name": "_carType",
          "type": "string"
        },
        {
          "internalType": "string",
          "name": "_licensePlate",
          "type": "string"
        }
      ],
      "name": "setDriverData",
      "outputs": [],
      "stateMutability": "nonpayable",
      "type": "function"
    },
    {
      "inputs": [],
      "name": "getAllTransactions",
      "outputs": [
        {
          "components": [
            {
              "internalType": "address",
              "name": "party",
              "type": "address"
            },
            {
              "internalType": "string",
              "name": "origin",
              "type": "string"
            },
            {
              "internalType": "string",
              "name": "destination",
              "type": "string"
            },
            {
              "internalType": "uint256",
              "name": "price",
              "type": "uint256"
            },
            {
              "internalType": "bool",
              "name": "driver",
              "type": "bool"
            }
          ],
          "internalType": "struct User.TransactionStruct[]",
          "name": "",
          "type": "tuple[]"
        }
      ],
      "stateMutability": "view",
      "type": "function",
      "constant": true
    },
    {
      "inputs": [
        {
          "internalType": "address payable",
          "name": "_party",
          "type": "address"
        },
        {
          "internalType": "string",
          "name": "_origin",
          "type": "string"
        },
        {
          "internalType": "string",
          "name": "_destination",
          "type": "string"
        },
        {
          "internalType": "uint256",
          "name": "_price",
          "type": "uint256"
        },
        {
          "internalType": "bool",
          "name": "_driver",
          "type": "bool"
        },
        {
          "internalType": "int256",
          "name": "_rating",
          "type": "int256"
        }
      ],
      "name": "addTransaction",
      "outputs": [],
      "stateMutability": "payable",
      "type": "function",
      "payable": true
    }
  ],
  "bytecode": "0x608060405234801561001057600080fd5b506116bf806100206000396000f3fe6080604052600436106100555760003560e01c806327506f531461005a5780636386c1c714610085578063b9340fdc146100c2578063c68f8bb5146100eb578063d0e30db014610107578063d607ac4414610111575b600080fd5b34801561006657600080fd5b5061006f61013a565b60405161007c9190610dbc565b60405180910390f35b34801561009157600080fd5b506100ac60048036038101906100a79190610e1e565b610375565b6040516100b99190610efb565b60405180910390f35b3480156100ce57600080fd5b506100e960048036038101906100e4919061107e565b6105b2565b005b610105600480360381019061010091906111cf565b6106a0565b005b61010f610a34565b005b34801561011d57600080fd5b5061013860048036038101906101339190611294565b610a36565b005b6060600160003373ffffffffffffffffffffffffffffffffffffffff1673ffffffffffffffffffffffffffffffffffffffff168152602001908152602001600020805480602002602001604051908101604052809291908181526020016000905b8282101561036c57838290600052602060002090600502016040518060a00160405290816000820160009054906101000a900473ffffffffffffffffffffffffffffffffffffffff1673ffffffffffffffffffffffffffffffffffffffff1673ffffffffffffffffffffffffffffffffffffffff1681526020016001820180546102249061131f565b80601f01602080910402602001604051908101604052809291908181526020018280546102509061131f565b801561029d5780601f106102725761010080835404028352916020019161029d565b820191906000526020600020905b81548152906001019060200180831161028057829003601f168201915b505050505081526020016002820180546102b69061131f565b80601f01602080910402602001604051908101604052809291908181526020018280546102e29061131f565b801561032f5780601f106103045761010080835404028352916020019161032f565b820191906000526020600020905b81548152906001019060200180831161031257829003601f168201915b50505050508152602001600382015481526020016004820160009054906101000a900460ff1615151515815250508152602001906001019061019b565b50505050905090565b61037d610b40565b6000808373ffffffffffffffffffffffffffffffffffffffff1673ffffffffffffffffffffffffffffffffffffffff1681526020019081526020016000206040518060c00160405290816000820180546103d69061131f565b80601f01602080910402602001604051908101604052809291908181526020018280546104029061131f565b801561044f5780601f106104245761010080835404028352916020019161044f565b820191906000526020600020905b81548152906001019060200180831161043257829003601f168201915b505050505081526020016001820160009054906101000a900460ff1615151515815260200160028201548152602001600382015481526020016004820180546104979061131f565b80601f01602080910402602001604051908101604052809291908181526020018280546104c39061131f565b80156105105780601f106104e557610100808354040283529160200191610510565b820191906000526020600020905b8154815290600101906020018083116104f357829003601f168201915b505050505081526020016005820180546105299061131f565b80601f01602080910402602001604051908101604052809291908181526020018280546105559061131f565b80156105a25780601f10610577576101008083540402835291602001916105a2565b820191906000526020600020905b81548152906001019060200180831161058557829003601f168201915b5050505050815250509050919050565b6040518060c0016040528085815260200184151581526020016000815260200160008152602001838152602001828152506000803373ffffffffffffffffffffffffffffffffffffffff1673ffffffffffffffffffffffffffffffffffffffff168152602001908152602001600020600082015181600001908161063691906114fc565b5060208201518160010160006101000a81548160ff0219169083151502179055506040820151816002015560608201518160030155608082015181600401908161068091906114fc565b5060a082015181600501908161069691906114fc565b5090505050505050565b6000811461075857806000808873ffffffffffffffffffffffffffffffffffffffff1673ffffffffffffffffffffffffffffffffffffffff16815260200190815260200160002060020160008282546106f991906115fd565b925050819055506000808773ffffffffffffffffffffffffffffffffffffffff1673ffffffffffffffffffffffffffffffffffffffff168152602001908152602001600020600301600081548092919061075290611641565b91905055505b8573ffffffffffffffffffffffffffffffffffffffff166108fc349081150290604051600060405180830381858888f1935050505015801561079e573d6000803e3d6000fd5b50600160003373ffffffffffffffffffffffffffffffffffffffff1673ffffffffffffffffffffffffffffffffffffffff1681526020019081526020016000206040518060a001604052808873ffffffffffffffffffffffffffffffffffffffff168152602001878152602001868152602001858152602001841515815250908060018154018082558091505060019003906000526020600020906005020160009091909190915060008201518160000160006101000a81548173ffffffffffffffffffffffffffffffffffffffff021916908373ffffffffffffffffffffffffffffffffffffffff16021790555060208201518160010190816108a291906114fc565b5060408201518160020190816108b891906114fc565b506060820151816003015560808201518160040160006101000a81548160ff0219169083151502179055505050600160008773ffffffffffffffffffffffffffffffffffffffff1673ffffffffffffffffffffffffffffffffffffffff1681526020019081526020016000206040518060a001604052803373ffffffffffffffffffffffffffffffffffffffff16815260200187815260200186815260200185815260200184151515815250908060018154018082558091505060019003906000526020600020906005020160009091909190915060008201518160000160006101000a81548173ffffffffffffffffffffffffffffffffffffffff021916908373ffffffffffffffffffffffffffffffffffffffff16021790555060208201518160010190816109e991906114fc565b5060408201518160020190816109ff91906114fc565b506060820151816003015560808201518160040160006101000a81548160ff0219169083151502179055505050505050505050565b565b6040518060c0016040528083815260200182151581526020016000815260200160008152602001604051806020016040528060008152508152602001604051806020016040528060008152508152506000803373ffffffffffffffffffffffffffffffffffffffff1673ffffffffffffffffffffffffffffffffffffffff1681526020019081526020016000206000820151816000019081610ad891906114fc565b5060208201518160010160006101000a81548160ff02191690831515021790555060408201518160020155606082015181600301556080820151816004019081610b2291906114fc565b5060a0820151816005019081610b3891906114fc565b509050505050565b6040518060c0016040528060608152602001600015158152602001600081526020016000815260200160608152602001606081525090565b600081519050919050565b600082825260208201905092915050565b6000819050602082019050919050565b600073ffffffffffffffffffffffffffffffffffffffff82169050919050565b6000610bcf82610ba4565b9050919050565b610bdf81610bc4565b82525050565b600081519050919050565b600082825260208201905092915050565b60005b83811015610c1f578082015181840152602081019050610c04565b60008484015250505050565b6000601f19601f8301169050919050565b6000610c4782610be5565b610c518185610bf0565b9350610c61818560208601610c01565b610c6a81610c2b565b840191505092915050565b6000819050919050565b610c8881610c75565b82525050565b60008115159050919050565b610ca381610c8e565b82525050565b600060a083016000830151610cc16000860182610bd6565b5060208301518482036020860152610cd98282610c3c565b91505060408301518482036040860152610cf38282610c3c565b9150506060830151610d086060860182610c7f565b506080830151610d1b6080860182610c9a565b508091505092915050565b6000610d328383610ca9565b905092915050565b6000602082019050919050565b6000610d5282610b78565b610d5c8185610b83565b935083602082028501610d6e85610b94565b8060005b85811015610daa5784840389528151610d8b8582610d26565b9450610d9683610d3a565b925060208a01995050600181019050610d72565b50829750879550505050505092915050565b60006020820190508181036000830152610dd68184610d47565b905092915050565b6000604051905090565b600080fd5b600080fd5b610dfb81610bc4565b8114610e0657600080fd5b50565b600081359050610e1881610df2565b92915050565b600060208284031215610e3457610e33610de8565b5b6000610e4284828501610e09565b91505092915050565b6000819050919050565b610e5e81610e4b565b82525050565b600060c0830160008301518482036000860152610e818282610c3c565b9150506020830151610e966020860182610c9a565b506040830151610ea96040860182610e55565b506060830151610ebc6060860182610e55565b5060808301518482036080860152610ed48282610c3c565b91505060a083015184820360a0860152610eee8282610c3c565b9150508091505092915050565b60006020820190508181036000830152610f158184610e64565b905092915050565b600080fd5b600080fd5b7f4e487b7100000000000000000000000000000000000000000000000000000000600052604160045260246000fd5b610f5f82610c2b565b810181811067ffffffffffffffff82111715610f7e57610f7d610f27565b5b80604052505050565b6000610f91610dde565b9050610f9d8282610f56565b919050565b600067ffffffffffffffff821115610fbd57610fbc610f27565b5b610fc682610c2b565b9050602081019050919050565b82818337600083830152505050565b6000610ff5610ff084610fa2565b610f87565b90508281526020810184848401111561101157611010610f22565b5b61101c848285610fd3565b509392505050565b600082601f83011261103957611038610f1d565b5b8135611049848260208601610fe2565b91505092915050565b61105b81610c8e565b811461106657600080fd5b50565b60008135905061107881611052565b92915050565b6000806000806080858703121561109857611097610de8565b5b600085013567ffffffffffffffff8111156110b6576110b5610ded565b5b6110c287828801611024565b94505060206110d387828801611069565b935050604085013567ffffffffffffffff8111156110f4576110f3610ded565b5b61110087828801611024565b925050606085013567ffffffffffffffff81111561112157611120610ded565b5b61112d87828801611024565b91505092959194509250565b600061114482610ba4565b9050919050565b61115481611139565b811461115f57600080fd5b50565b6000813590506111718161114b565b92915050565b61118081610c75565b811461118b57600080fd5b50565b60008135905061119d81611177565b92915050565b6111ac81610e4b565b81146111b757600080fd5b50565b6000813590506111c9816111a3565b92915050565b60008060008060008060c087890312156111ec576111eb610de8565b5b60006111fa89828a01611162565b965050602087013567ffffffffffffffff81111561121b5761121a610ded565b5b61122789828a01611024565b955050604087013567ffffffffffffffff81111561124857611247610ded565b5b61125489828a01611024565b945050606061126589828a0161118e565b935050608061127689828a01611069565b92505060a061128789828a016111ba565b9150509295509295509295565b600080604083850312156112ab576112aa610de8565b5b600083013567ffffffffffffffff8111156112c9576112c8610ded565b5b6112d585828601611024565b92505060206112e685828601611069565b9150509250929050565b7f4e487b7100000000000000000000000000000000000000000000000000000000600052602260045260246000fd5b6000600282049050600182168061133757607f821691505b60208210810361134a576113496112f0565b5b50919050565b60008190508160005260206000209050919050565b60006020601f8301049050919050565b600082821b905092915050565b6000600883026113b27fffffffffffffffffffffffffffffffffffffffffffffffffffffffffffffffff82611375565b6113bc8683611375565b95508019841693508086168417925050509392505050565b6000819050919050565b60006113f96113f46113ef84610c75565b6113d4565b610c75565b9050919050565b6000819050919050565b611413836113de565b61142761141f82611400565b848454611382565b825550505050565b600090565b61143c61142f565b61144781848461140a565b505050565b5b8181101561146b57611460600082611434565b60018101905061144d565b5050565b601f8211156114b05761148181611350565b61148a84611365565b81016020851015611499578190505b6114ad6114a585611365565b83018261144c565b50505b505050565b600082821c905092915050565b60006114d3600019846008026114b5565b1980831691505092915050565b60006114ec83836114c2565b9150826002028217905092915050565b61150582610be5565b67ffffffffffffffff81111561151e5761151d610f27565b5b611528825461131f565b61153382828561146f565b600060209050601f8311600181146115665760008415611554578287015190505b61155e85826114e0565b8655506115c6565b601f19841661157486611350565b60005b8281101561159c57848901518255600182019150602085019450602081019050611577565b868310156115b957848901516115b5601f8916826114c2565b8355505b6001600288020188555050505b505050505050565b7f4e487b7100000000000000000000000000000000000000000000000000000000600052601160045260246000fd5b600061160882610e4b565b915061161383610e4b565b92508282019050828112156000831216838212600084121516171561163b5761163a6115ce565b5b92915050565b600061164c82610e4b565b91507f7fffffffffffffffffffffffffffffffffffffffffffffffffffffffffffffff820361167e5761167d6115ce565b5b60018201905091905056fea2646970667358221220b1a89b60295c10ec6f88e0b9d1d307463937de69d4a4c28299cc5abbbc8f4d3664736f6c63430008110033",
  "immutableReferences": {},
  "source": "// SPDX-License-Identifier: MIT\npragma solidity >=0.4.22 <0.9.0;\n\ncontract User {\n  struct UserStruct {\n      string name;\n      bool driver;\n      int rating;\n      int noOfRatingTransactions;\n      string carType;\n      string licensePlate;\n  }\n\n    struct TransactionStruct {\n        address party;\n        string origin;\n        string destination;\n        uint256 price;\n        bool driver;\n    }\n\n    mapping(address => UserStruct) userData;\n    mapping(address => TransactionStruct[]) transactionHistory;\n\n    function deposit() public payable {\n\n    }\n\n    function getUserInfo(address _wallet) public view returns (UserStruct memory) {\n        return userData[_wallet];\n    }\n\n    function setUserData(string memory _name, bool _driver) public {\n        userData[msg.sender] = UserStruct(_name, _driver, 0, 0, '', '');\n    }\n\n    function setDriverData(string memory _name, bool _driver, string memory _carType, string memory _licensePlate) public {\n        userData[msg.sender] = UserStruct(_name, _driver, 0, 0, _carType, _licensePlate);\n    }\n\n    function getAllTransactions() public view returns (TransactionStruct[] memory) {\n        return transactionHistory[msg.sender];\n    }\n\n    function addTransaction(address payable _party, string memory _origin, string memory _destination, uint256 _price, bool _driver, int _rating) public payable {\n        if (_rating != 0) {\n            userData[_party].rating += _rating;\n            userData[_party].noOfRatingTransactions++;\n        }\n\n        _party.transfer(msg.value);\n\n        transactionHistory[msg.sender].push(TransactionStruct(_party, _origin, _destination, _price, _driver));\n        transactionHistory[_party].push(TransactionStruct(msg.sender, _origin, _destination, _price, !_driver));\n    }\n\n\n}",
  "sourcePath": "C:\\Users\\eugen\\WebstormProjects\\final_project_backend\\express\\contracts\\User.sol",
  "compiler": {
    "name": "solc",
    "version": "0.8.17+commit.8df45f5f.Emscripten.clang"
  },
  "schemaVersion": "3.4.10",
  "updatedAt": "2022-10-10T14:51:04.264Z",
  "networkType": "ethereum",
  "devdoc": {
    "kind": "dev",
    "methods": {},
    "version": 1
  },
  "userdoc": {
    "kind": "user",
    "methods": {},
    "version": 1
  }
}